:100000000002001061010000A1020000A102000036
:10001000A1020000A1020000A1020000A102000054
:10002000A1020000A1020000A1020000C102000024
:10003000A1020000A1020000A10200008103000053
:10004000A1020000A1020000A1020000A102000024
:10005000A1020000A1020000A1020000A102000014
:10006000A1020000A1020000A1020000A102000004
:10007000A1020000A1020000A1020000A1020000F4
:10008000A1020000A1020000A1020000A1020000E4
:10009000A1020000A1020000A1020000A1020000D4
:1000A000A1020000A1020000A1020000A1020000C4
:1000B000A1020000A1020000A1020000A1020000B4
:0C00C000A1020000A1020000A10200004B
:1000D00000B54FF44043C2F209031A6883B042F4FA
:1000E00000721A601A68002442F480721A601A685A
:1000F00042F080021A6000F08BF940F2605040F646
:10010000E123C0F200034FF4987140220094C1F241
:10011000000000F055FB40F2906040F6C1230094CF
:10012000C1F20000C0F200034FF49871402200F0C9
:1001300047FB4FF4FA6000F08BFBFAE70000000089
:10014000704700BF00000000000000000000000039
:10015000FEE700BF000000000000000000000000FB
:1001600072B640F20040C1F2000080F30988022319
:1001700083F31488BFF36F8F40F2000340F2002234
:10018000C1F20003C1F2000293420BD2D9431144E1
:1001900021F0030119444FF05532043B43F8042F7A
:1001A0008B42FBD140F20023C1F2000383420CD208
:1001B00037491A1D891A21F0030119444FF05532AD
:1001C000043B43F8042F8B42FBD100F0D1FB40F2FB
:1001D000004140F20043C1F20001C1F20003994224
:1001E0000ED2CC431C4424F0030440F6783004348F
:1001F000C0F200000023C258CA500433A342FAD10F
:1002000040F2004340F2C472C1F20003C1F20002A6
:1002100093420AD2D943114421F003011944002228
:10022000043B43F8042F8B42FBD1FFF789FF40F2D8
:10023000CC0540F2CC03C0F20005C0F200039D42A1
:100240000BD2EE431E44B6080136043D00240134AF
:1002500055F8043F9847B442F9D1FFF739FF40F20F
:10026000CC0540F2CC03C0F20005C0F200039D4271
:100270000BD2EE431E44B6080136043D002401347F
:1002800055F8043F9847B442F9D1FFF761FF00BF2A
:100290000304001000000000000000000000000047
:1002A000FEE700BF000000000000000000000000AA
:1002B00000F056FA00DF00BF000000000000000060
:1002C000EFF30983203383F30988002383F3118834
:1002D000704700BF000000000000000000000000A8
:1002E00008B54FF480624FF46D43CEF20003C0F2C4
:1002F000FA52002199600720DA60202100F060F8AE
:100300000A204FF4006100F05BF8BDE808400B20C4
:10031000802100F055B800BF000000000000000080
:10032000402383F311884FF46D43CEF200035B68E2
:1003300013F400631ED0EFF30982A2F1200383F3CC
:10034000098840F21853C1F2000319689B69896853
:100350009B684FF0807099428BBF40F2B12340F20E
:10036000B423C0F20003C0F2000342F8040C42F8C8
:10037000083C704783F31188704700BF00000000FD
:1003800008B5402383F3118800F07AF8002383F343
:100390001188BDE80840FFF7C3BF00BF00000000A0
:1003A0002DE9F04FC1F80CD0D0F80CD0BDE8F08F9B
:1003B000002383F311882846A04700F081FA704794
:1003C00000F00303DB00FF229A40994020F0030075
:1003D00000F1604000F56D40836923EA02030B439E
:1003E0008361704700000000000000000000000072
:1003F00040F21853C1F200039A6940F63033C0F25C
:1004000000039361FEE700BF000000000000000051
:1004100010B582B0FFF764FF00F0E2F800F060F87A
:1004200000F05EFA00F094FA40F200404021C1F280
:10043000000000F09DF940F21853C1F200030122C0
:1004400098610277002383F3118862B640F2185353
:10045000C1F200039C6940F64032C0F20002002164
:1004600040F2484040F2F133A261C0F20003009133
:100470000122C021C1F2000000F0A2F902B010BDBB
:1004800040F21853C1F200039B6940F208511A6A06
:10049000C1F20001013270B51A62CB680A680133FB
:1004A0008A42CB6019D09668013E9660AEB90D467F
:1004B0001068D4680860D6600023416083F3118817
:1004C0001069A047402383F311882A6840F208513D
:1004D0009368C1F20001002BEAD070BD000000005B
:1004E00040F20853C1F200034FF0FF3100225B607D
:1004F0001B609960DA607047000000000000000097
:1005000070B440F20856C1F200063468A568036171
:10051000A942C26004D92468491BA5688D42FAD358
:100520006368B442046043606060186081601EBF0D
:10053000A368C1EB0301A16070BC7047000000001C
:10054000036840F20852C1F2000293421FBF99684B
:10055000826852189A6042680021136003685A60EA
:10056000C1607047000000000000000000000000B3
:1005700010B4402383F31188037F0D2B11D8DFE8DB
:1005800003F029101007100B101010101010100B92
:10059000436A9A6801329A6090E80C001A60026817
:1005A00053604FF0FF34002340F2185281684462D8
:1005B0000377C1F20002126893688B42FBD2516844
:1005C0000023026041605060086083F311885DF889
:1005D000044B7047002383F311885DF8044B704788
:1005E00040F21853C1F2000300225B601B605B61A4
:1005F0001B619A60704700BF00000000000000000F
:10060000002240F21853816810B4C1F2000304467E
:1006100002771B689A688A42FBD25A682046236098
:1006200062605C6014605DF8044B7047000000007D
:1006300040F21853C1F2000330B41A689969146883
:1006400001250877636015771C60104630BC9A61FD
:10065000FFF7A6BE00000000000000000000000040
:1006600030B54B1C87B0054617D040F21854C1F284
:10067000000440F27152A36901A8C0F20002FFF722
:100680003FFF2846FFF7D4FF049B13B101A8FFF7F3
:1006900057FFA369586A07B030BDFFF7C9FF40F2A2
:1006A0001854C1F20004A369586A07B030BD00BFF6
:1006B000F0B440F21857C1F20007D7F818C08568A7
:1006C000DCF808400646A54241620DD800223B46B0
:1006D00002771B689A689542FBD95A68336072604A
:1006E0005E601660F0BC704700238CF81C303B46FF
:1006F0001B689A689442FBD95A680124CCF80030F0
:10070000CCF80420C3F804C0C2F800C034773046E7
:10071000BE616146F0BCFFF743BE00BF00000000B1
:1007200040F21852C1F20002106870B40368956973
:1007300001260021AC6813605A6006770346906179
:10074000297700E01B689A68A242FBD85A682946BC
:100750002B606A605D60156070BCFFF721BE00BF52
:10076000FFF7DEBF000000000000000000000000F6
:100770002DE9F00140F21852C1F20002556900243F
:1007800000F12C064FF0020800F128074FF0010C91
:1007900045610261816080F81C804477C463846392
:1007A000046284610164506180F81EC02861876220
:1007B0000663C662BDE8F001704700BF000000009C
:1007C0002DE9F84F9C460446402383F3118840F2FC
:1007D0001856C1F20006D6F814E0A1F124000A9BD5
:1007E00040F2B1310025271804F12C0BC0F20001B2
:1007F0004FF0020A4FF0010904F12808E76044F8BD
:1008000000C07B6039622046A2602661C4F814E013
:10081000226484F81CA084F81E9065777461E563F7
:10082000A5632562A5612946CEF81040C4F828804A
:10083000C4F830B0C4F82CB0FFF73AFF2B4683F36E
:1008400011882046BDE8F88F00000000000000007D
:1008500008B50146402383F311880620FFF700FF07
:10086000002383F3118808BD000000000000000091
:1008700038B540F21853C1F200039C69254655F87B
:10088000283F6062AB4207D01A681846A262FFF7A1
:10089000B7FEA36AAB42F7D1637F9B0704D12269FD
:1008A00063691A61226953610E20BDE83840FFF781
:1008B000BFBE00BF000000000000000000000000FC
:1008C000402383F31188FFF7D3BF00BF000000006F
:1008D0000023406000608360704700BF000000009C
:1008E00048F200010848C1F2000140F2345240F2DF
:1008F000385321F00701C1F2000220F00700C1F2D5
:100900000003116018607047CB0700100000000062
:10091000402383F3118840F2385340F23452C1F23D
:100920000003C1F2000219681268073020F00700C6
:10093000521A90429BBF40181860002008460023BE
:1009400083F31188704700BF000000000000000022
:1009500040F24053C1F2000340F611120021C0F2F0
:10096000000203F110001A609960D960FFF7B0BF70
:1009700038B500F015F84EF2100348F29F614FF4BD
:100980006D42CEF20003C0F20101CEF20002F82562
:100990005960002482F8235007209C60186038BDFD
:1009A0004FF44042C4F20F02202370B4C2F8A031C9
:1009B000D2F8A0319D067AD44FF44043C4F20F031D
:1009C000022100250124AA2055220E26C3F8041175
:1009D000C3F8A8511946C3F8AC51C3F80C41C3F889
:1009E0008460C3F88C00C3F88C20C3F88040C3F83F
:1009F0008C00C3F88C20D1F888204FF4404350017C
:100A0000C4F20F03F7D50321AA205522C3F88010A2
:100A1000C3F88C001946C3F88C20D1F888204FF415
:100A2000404302F04072B2F1407FC4F20F03F4D1B0
:100A30002321AA2055220124C3F8A410C3F8AC0036
:100A40001946C3F8AC20C3F8A040C3F8AC00C3F803
:100A5000AC20D1F8A8204FF440435205C4F20F0354
:100A6000F7D50321AA205522C3F8A010C3F8AC0083
:100A70001946C3F8AC20D1F8A8204FF4404302F443
:100A80004072B2F5407FC4F20F03F4D148F2DE7237
:100A9000C0F228020021C3F8C420C3F8C8111A68A4
:100AA00070BC22F4704242F480421A607047D2F85F
:100AB000A0315C0680D4D2F8A0315C06F7D57BE784
:100AC00008B540F21853C1F200039A6940F660334A
:100AD000C0F20003936140F6C410FFF7B9FEFAE7D5
:100AE00038B540F21853C1F2000340F2C07499695E
:100AF00040F66C32C1F20004C0F200024FF44045EF
:100B000023688A61C2F20905DB074BBFAB69EB6959
:100B100043F4807343F480734CBFAB61EB614FF4DB
:100B2000FA60FFF795FE236801332360ECE700BF0E
:100B300069646C6500000000000000000000000017
:100B40006D61696E0016C011040448080C10141879
:100B5000001C1D1E0020000000000000000000001E
:100B6000626C696E6B65723200000000626C696EC7
:080B70006B657231000000000A
:040000030000016197
:00000001FF
